:020000040800F2
:1000000000000520E12D020815BA010823BA0108F5
:1000100029BA01082FBA010835BA0108000000000A
:10002000000000000000000000000000312E020867
:100030003BBA010800000000312E020849BA01084D
:10004000312E0208312E0208312E0208312E02080C
:10005000312E0208312E0208312E0208312E0208FC
:10006000312E0208312E0208312E0208312E0208EC
:10007000312E0208312E0208312E0208312E0208DC
:10008000312E0208312E0208312E0208312E0208CC
:10009000312E0208312E0208312E0208312E0208BC
:1000A000312E0208312E0208312E0208312E0208AC
:1000B000312E020865BA0108312E0208312E0208DD
:1000C000312E0208312E0208312E0208312E02088C
:1000D000312E0208312E0208312E0208312E02087C
:1000E000E5BA0108312E0208312E0208312E02082D
:1000F000312E0208312E0208312E0208312E02085C
:10010000312E0208F5BA0108312E0208312E0208FC
:10011000312E0208312E0208312E020879BA010868
:10012000312E02088DBA0108312E020821BB0108C8
:10013000312E0208312E0208312E0208312E02081B
:10014000312E0208312E0208312E0208312E02080B
:10015000312E020809BB0108A5BA0108BDBA010881
:10016000312E0208312E0208312E0208312E0208EB
:10017000312E0208312E0208312E02080000000044
:10018000312E0208312E0208312E0208312E0208CB
:10019000312E0208312E0208312E0208312E0208BB
:1001A000D1BA0108312E0208312E0208312E020880
:1001B000312E0208312E0208312E0208312E02089B
:1001C000312E0208312E020810B5054C237833B9C0
:1001D000044B13B10448AFF300800123237010BD1A
:1001E000400E002000000000D0B80E080C4B43B1B8
:1001F0000C480D4910B5AFF300800C48036823B9D3
:1002000010BD0A48036833B97047094B002BF7D07B
:10021000BDE810401847064B002BF5D0184700BF2B
:1002200000000000D0B80E08440E00203C0E002054
:1002300000000000154B002B08BF134B9D46A3F593
:10024000803A00218B460F461348144A121A61F077
:10025000FBFD0F4B002B00D098470E4B002B00D01E
:1002600098470020002104000D000D48002802D00E
:100270000C4864F093FB61F061F92000290022F042
:1002800031FC60F04DFF00BF0000080000000520B9
:100290000000000000000000400E00207C840220CE
:1002A0009D490608ED5C060880B582B000AF0023CA
:1002B000FB71204B204A1A601E4B00225A601D4BD6
:1002C00000229A601B4B0022DA601A4B00221A614E
:1002D000184B00225A61174B05229A6100211548DC
:1002E00000F0F0F900F06CF80346012B01D0022376
:1002F0001CE000210F4800F0F9F80E4833F052F8E6
:100300000346002B01D00123FB71FB79002B0CD19C
:100310004FF40061074834F041FD0346002B02D042
:100320000123FB7101E00023FB71FB7918460837BC
:10033000BD4680BDC01D0020002C014080B582B0AC
:1003400000AF0023FB710B4B0B4A1A60094833F0D6
:10035000B5F80346002B01D00123FB71054B064A7B
:100360001A600021034800F0D5F9FB7918460837D8
:10037000BD4680BDC01D0020002C014080B586B068
:1003800000AF4FF400537B600123FB6002233B610D
:10039000094BBB603B1D1946084808F02DFE0022A2
:1003A0000F2128201BF093FD28201BF0ACFD00231B
:1003B00018461837BD4680BD0000311000080240C5
:1003C00080B582B000AF0123FB714FF400510748A4
:1003D00009F0C8F80346012B01D10023FB71FB791A
:1003E000DBB218460837BD4680BD00BF000802409A
:1003F00080B586B002AFF860B9607A603B603B6858
:1004000000937B68BA68F968064833F08AF80346B7
:10041000002B01D0012300E0002318461037BD4611
:1004200080BD00BFC01D002080B586B002AFF8605F
:10043000B9607A603B603B6800937B68BA68F96892
:10044000064833F004FA0346002B01D0012300E0F4
:10045000002318461037BD4680BD00BFC01D0020D8
:1004600080B584B000AFF860B9607A607B68BA6824
:10047000F968064833F0B4FC0346002B01D0012391
:1004800000E0002318461037BD4680BDC01D002087
:1004900080B584B000AFF860B9607A607B68BA68F4
:1004A000F968064833F06AFD0346002B01D00123AA
:1004B00000E0002318461037BD4680BDC01D002057
:1004C00080B582B000AF786039603A6879680648D4
:1004D00033F022FE0346002B01D0012300E000236D
:1004E00018460837BD4680BDC01D002080B58CB0C1
:1004F00000AF786039606C4A6B4B5B6C43F400630F
:100500005364694B5B6C03F40063BB61BB69664A6F
:10051000654B1B6B43F480031363634B1B6B03F44A
:1005200080037B617B69604A5F4B1B6B43F0040374
:1005300013635D4B1B6B03F004033B613B695A4A39
:10054000594B1B6B43F008031363574B1B6B03F0B2
:100550000803FB60FB6802233B6200237B620323EA
:10056000BB620C23FB624FF4F853FB6107F11C03E1
:1005700019464E4808F040FD0423FB6107F11C03B7
:1005800019464B4808F038FD00220E2131201BF09F
:100590009EFC31201BF0B7FC464B4FF000625A60C6
:1005A000444B00229A60434B0022DA60414B4FF4E7
:1005B00080621A613F4B4FF480525A613D4B4FF4B9
:1005C00080429A613B4B2022DA613A4B4FF4403231
:1005D0001A62384B04225A62364B03229A62354B18
:1005E0004FF40002DA62334B4FF400121A63314BBE
:1005F000314A1A607B682F4ADA632E4A7B6893631C
:100600002C4835F063FD2B4835F0B6FC2B4B4FF0F2
:1006100000625A60294B40229A60284B0022DA601F
:10062000264B4FF480621A61244B4FF480525A617A
:10063000224B4FF480429A61204B2022DA611F4BFB
:100640004FF440321A621D4B04225A621B4B0322A4
:100650009A621A4B4FF40002DA62184B4FF4001200
:100660001A63164B164A1A607B68144A1A64134AB6
:100670007B689363114835F029FD104835F07CFC08
:1006800000220F213B201BF022FC3B201BF03BFCF7
:1006900000220F2145201BF01AFC45201BF033FCE3
:1006A00000BF3037BD4680BD003802400008024020
:1006B000000C02405C0E002058640240BC0E00207A
:1006C000A064024080B588B000AF786039600F4AFE
:1006D0000E4B1B6B43F0040313630C4B1B6B03F0BB
:1006E0000403BB60BB684FF40053FB6000233B6115
:1006F00001237B610323BB6107F10C031946044806
:1007000008F07AFC00BF2037BD4680BD00380240AB
:100710000008024080B582B000AF786039603B20AD
:100720001BF0FFFB45201BF0FCFB0C4B0C4A1A6036
:100730000A4835F0CBFC0B4B0B4A1A60094835F0E0
:10074000C5FC31201BF0EDFB084A084B5B6C23F421
:100750000063536400BF0837BD4680BD1C0F0020F6
:10076000586402407C0F0020A06402400038024020
:1007700080B500AF054834F08DFB0346042B14BF51
:1007800001230023DBB2184680BD00BFC01D00203E
:1007900080B582B000AF78607968034834F0D2FA4F
:1007A00000BF0837BD4680BDC01D002080B582B0A7
:1007B00000AF786000F018F800BF0837BD4680BD74
:1007C00080B582B000AF786000F015F800BF083740
:1007D000BD4680BD80B582B000AF786000F012F8F1
:1007E00000BF0837BD4680BD80B400AF00BFBD4626
:1007F0005DF8047B704780B400AF00BFBD465DF874
:10080000047B704780B400AF00BFBD465DF8047B39
:10081000704700BF80B58AB000AF786039607B68F0
:10082000002B01D101237CE07B68022283F83D206C
:10083000786800F0ADF87B681A687B680433194665
:1008400010460CF0EBF97B6818683B6819683B6848
:100850009B6803220CF0ECFC7B681B687A681268CA
:10086000926922F00C029A617B681B687A681268B0
:1008700091693A6852680A439A617B681B687A6892
:100880001268526842F080025A607B681B687A687E
:100890001268926822F070029A607B681B687A681E
:1008A0001268926842F040029A607B681A687B681E
:1008B0001B6899681D4B0B4093607B681B687A68C6
:1008C0001268926842F004029A600023FB610023E0
:1008D0003B627023FB6000237B620023BB6100232B
:1008E0007B613B68DB683B617B681B6807F10C023E
:1008F000114618460CF0B8FA7B681B687A681268D3
:10090000526822F070025A607B681B687A6812682D
:10091000526842F050025A607B68012283F83D2001
:10092000002318462837BD4680BD00BFF8FFFEFFF4
:1009300080B582B000AF78607B68022283F83D20EA
:100940007B681B681A6A41F211131340002B0FD108
:100950007B681B681A6A40F244431340002B07D19E
:100960007B681B687A681268126822F001021A60BC
:10097000786800F017F87B68002283F83D207B68D8
:10098000002283F83C20002318460837BD4680BD6E
:1009900080B483B000AF786000BF0C37BD465DF80F
:1009A000047B704780B483B000AF786000BF0C3721
:1009B000BD465DF8047B704780B582B000AF7860BB
:1009C0007B681B680122002118460CF014FE7B682E
:1009D0001B687A681268126842F001021A600023EC
:1009E00018460837BD4680BD80B582B000AF78603C
:1009F0007B681B680022002118460CF0FCFD7B6818
:100A00001B681A6A41F211131340002B0FD17B6847
:100A10001B681A6A40F244431340002B07D17B68DD
:100A20001B687A681268126822F001021A600023BB
:100A300018460837BD4680BD80B582B000AF7860EB
:100A40007B681B687A681268D26842F00202DA603A
:100A50007B681B680122002118460CF0CCFD7B68E6
:100A60001B687A681268126842F001021A6000235B
:100A700018460837BD4680BD80B582B000AF7860AB
:100A80007B681B680022002118460CF0B4FD7B68CF
:100A90001B687A681268D26822F00202DA607B680A
:100AA0001B681A6A41F211131340002B0FD17B68A7
:100AB0001B681A6A40F244431340002B07D17B683D
:100AC0001B687A681268126822F001021A6000231B
:100AD00018460837BD4680BD80B584B000AFF860C9
:100AE000B9601346FB80FB6893F83D30DBB2022B04
:100AF00001D102233BE0FB6893F83D30DBB2012BD0
:100B00000BD1BB68002B04D1FB88002B01D0012343
:100B10002DE0FB68022283F83D20FB681B68012260
:100B2000002118460CF067FDFB685B6A124ADA6325
:100B3000FB685B6A114ADA64FB68586AFB681B68E9
:100B400034331946BA68FB8835F047FBFB681B68ED
:100B5000FA681268D26842F40072DA60FB681B68B7
:100B6000FA681268126842F001021A6000231846FF
:100B70001037BD4680BD00BF65CB0008D1CA000854
:100B800080B582B000AF78607B681B6800220021CE
:100B900018460CF030FD7B681B687A681268D268D2
:100BA00022F40072DA607B681B681A6A41F2111342
:100BB0001340002B0FD17B681B681A6A40F2444334
:100BC0001340002B07D17B681B687A681268126893
:100BD00022F001021A60002318460837BD4680BD86
:100BE00080B582B000AF786039607B681B680422F2
:100BF0003968184601F051FB7B681B687A681268F7
:100C0000526C42F400425A647B681B687A6812682E
:100C1000126842F001021A60002318460837BD46E8
:100C200080BD80B582B000AF786039607B681B689A
:100C300000223968184601F030FB7B681B681A6A8D
:100C400041F211131340002B0FD17B681B681A6A05
:100C500040F244431340002B07D17B681B687A683D
:100C60001268526C22F400425A647B681B681A6A4C
:100C700041F211131340002B0FD17B681B681A6AD5
:100C800040F244431340002B07D17B681B687A680D
:100C90001268126822F001021A6000231846083711
:100CA000BD4680BD80B582B000AF786039603B68DA
:100CB0000C2B41D801A252F823F000BFF10C000820
:100CC000390D0008390D0008390D0008030D000822
:100CD000390D0008390D0008390D0008150D000800
:100CE000390D0008390D0008390D0008270D0008DE
:100CF0007B681B687A681268D26842F00202DA6088
:100D00001BE07B681B687A681268D26842F00402B4
:100D1000DA6012E07B681B687A681268D26842F079
:100D20000802DA6009E07B681B687A681268D2689A
:100D300042F01002DA6000E000BF7B681B687A684E
:100D40001268D26842F08002DA607B681B68042275
:100D50003968184601F0A1FA7B681B687A68126846
:100D6000526C42F400425A647B681B687A681268CD
:100D7000126842F001021A60002318460837BD4687
:100D800080BD80B584B000AF786039600023FB601F
:100D90003B680C2B40D801A252F823F0D10D00087B
:100DA000190E0008190E0008190E0008E30D0008BE
:100DB000190E0008190E0008190E0008F50D00089C
:100DC000190E0008190E0008190E0008070E000879
:100DD0007B681B687A681268D26822F00202DA60C7
:100DE0001BE07B681B687A681268D26822F00402F4
:100DF000DA6012E07B681B687A681268D26822F0B9
:100E00000802DA6009E07B681B687A681268D268B9
:100E100022F01002DA6000E000BF7B681B6800224D
:100E20003968184601F039FA7B681B681B6AFB6059
:100E3000FA6840F244431340002B07D17B681B68DB
:100E40007A681268D26822F08002DA607B681B68D8
:100E50001A6A41F211131340002B0FD17B681B68F3
:100E60001A6A40F244431340002B07D17B681B6889
:100E70007A681268526C22F400425A647B681B68DC
:100E80001A6A41F211131340002B0FD17B681B68C3
:100E90001A6A40F244431340002B07D17B681B6859
:100EA0007A681268126822F001021A60002318465C
:100EB0001037BD4680BD80B584B000AFF860B96022
:100EC0007A607B80FB6893F83D30DBB2022B01D166
:100ED0000223B8E0FB6893F83D30DBB2012B0BD165
:100EE0007B68002B04D17B88002B01D00123AAE072
:100EF000FB68022283F83D20BB680C2B00F28A803D
:100F000001A252F823F000BF3D0F000815100008A1
:100F10001510000815100008730F000815100008C0
:100F20001510000815100008A90F0008151000087A
:100F30001510000815100008DF0F0008FB685B6A39
:100F4000434ADA63FB685B6A424ADA64FB68586AC0
:100F50007968FB681B6834331A467B8835F03DF9A5
:100F6000FB681B68FA681268D26842F40072DA60A3
:100F700051E0FB689B6A364ADA63FB689B6A354A34
:100F8000DA64FB68986A7968FB681B6838331A462C
:100F90007B8835F022F9FB681B68FA681268D26812
:100FA00042F48062DA6036E0FB68DB6A284ADA6382
:100FB000FB68DB6A274ADA64FB68D86A7968FB68F1
:100FC0001B683C331A467B8835F007F9FB681B68C1
:100FD000FA681268D26842F40062DA601BE0FB68CB
:100FE0001B6B1B4ADA63FB681B6B1A4ADA64FB68EB
:100FF000186B7968FB681B6840331A467B8835F0AC
:10100000ECF8FB681B68FA681268D26842F48052F8
:10101000DA6000E000BFFB681B680422B96818466C
:1010200001F03BF9FB681B68FA681268526C42F4E5
:1010300000425A64FB681B68FA681268126842F042
:1010400001021A60002318461037BD4680BD00BF5C
:10105000F5CA0008D1CA000880B582B000AF786038
:1010600039603B680C2B41D801A252F823F000BF35
:10107000A5100008ED100008ED100008ED100008A4
:10108000B7100008ED100008ED100008ED10000882
:10109000C9100008ED100008ED100008ED10000860
:1010A000DB1000087B681B687A681268D26822F43B
:1010B0000072DA601BE07B681B687A681268D2688D
:1010C00022F48062DA6012E07B681B687A6812683A
:1010D000D26822F40062DA6009E07B681B687A68F3
:1010E0001268D26822F48052DA6000E000BF7B68A8
:1010F0001B6800223968184601F0CFF87B681B682E
:101100001A6A41F211131340002B0FD17B681B6840
:101110001A6A40F244431340002B07D17B681B68D6
:101120007A681268526C22F400425A647B681B6829
:101130001A6A41F211131340002B0FD17B681B6810
:101140001A6A40F244431340002B07D17B681B68A6
:101150007A681268126822F001021A607B68012224
:1011600083F83D20002318460837BD4680BD80B572
:1011700082B000AF786039607B681B6804223968F0
:10118000184601F08AF87B681B687A681268526C0E
:1011900042F400425A647B681B687A6812681268DD
:1011A00042F001021A60002318460837BD4680BD90
:1011B00080B582B000AF786039607B681B68002220
:1011C0003968184601F069F87B681B681A6A41F2B1
:1011D00011131340002B0FD17B681B681A6A40F271
:1011E00044431340002B07D17B681B687A68126860
:1011F000526C22F400425A647B681B681A6A41F2FE
:1012000011131340002B0FD17B681B681A6A40F240
:1012100044431340002B07D17B681B687A6812682F
:10122000126822F001021A60002318460837BD46F2
:1012300080BD80B582B000AF786039603B680C2B10
:1012400040D801A252F823F07D120008C512000810
:10125000C5120008C51200088F120008C512000848
:10126000C5120008C5120008A1120008C512000826
:10127000C5120008C5120008B31200087B681B687D
:101280007A681268D26842F00202DA601BE07B687A
:101290001B687A681268D26842F00402DA6012E0D1
:1012A0007B681B687A681268D26842F00802DA60CC
:1012B00009E07B681B687A681268D26842F0100205
:1012C000DA6000E000BF7B681B687A681268D26849
:1012D00042F08002DA607B681B6804223968184695
:1012E00000F0DBFF7B681B687A681268526C42F47E
:1012F00000425A647B681B687A681268126842F080
:1013000001021A60002318460837BD4680BD80B52B
:1013100084B000AF786039600023FB603B680C2B21
:1013200040D801A252F823F05D130008A51300086D
:10133000A5130008A51300086F130008A5130008E3
:10134000A5130008A513000881130008A5130008C1
:10135000A5130008A5130008931300087B681B68F9
:101360007A681268D26822F00202DA601BE07B68B9
:101370001B687A681268D26822F00402DA6012E010
:101380007B681B687A681268D26822F00802DA600B
:1013900009E07B681B687A681268D26822F0100244
:1013A000DA6000E000BF7B681B68002239681846DD
:1013B00000F073FF7B681B681B6AFB60FA6840F2F1
:1013C00044431340002B07D17B681B687A6812687E
:1013D000D26822F08002DA607B681B681A6A41F2E8
:1013E00011131340002B0FD17B681B681A6A40F25F
:1013F00044431340002B07D17B681B687A6812684E
:10140000526C22F400425A647B681B681A6A41F2EB
:1014100011131340002B0FD17B681B681A6A40F22E
:1014200044431340002B07D17B681B687A6812681D
:10143000126822F001021A60002318461037BD46D8
:1014400080BD80B584B000AFF860B9607A607B8001
:10145000FB6893F83D30DBB2022B01D10223B8E0E8
:10146000FB6893F83D30DBB2012B0BD17B68002B7E
:1014700004D17B88002B01D00123AAE0FB68022263
:1014800083F83D20BB680C2B00F28A8001A252F841
:1014900023F000BFC9140008A1150008A115000819
:1014A000A1150008FF140008A1150008A1150008E7
:1014B000A115000835150008A1150008A1150008A0
:1014C000A11500086B150008FB685B6A434ADA63E4
:1014D000FB685B6A424ADA64FB68586A7968FB68B1
:1014E0001B6834331A467B8834F077FEFB681B6830
:1014F000FA681268D26842F40072DA6051E0FB6860
:101500009B6A364ADA63FB689B6A354ADA64FB6891
:10151000986A7968FB681B6838331A467B8834F010
:101520005CFEFB681B68FA681268D26842F480624D
:10153000DA6036E0FB68DB6A284ADA63FB68DB6A5C
:10154000274ADA64FB68D86A7968FB681B683C3311
:101550001A467B8834F041FEFB681B68FA68126803
:10156000D26842F40062DA601BE0FB681B6B1B4A26
:10157000DA63FB681B6B1A4ADA64FB68186B7968DC
:10158000FB681B6840331A467B8834F026FEFB68F4
:101590001B68FA681268D26842F48052DA6000E090
:1015A00000BFFB681B680422B968184600F075FE8E
:1015B000FB681B68FA681268526C42F400425A6475
:1015C000FB681B68FA681268126842F001021A6030
:1015D000002318461037BD4680BD00BFF5CA00087D
:1015E000D1CA000880B582B000AF786039603B682E
:1015F0000C2B41D801A252F823F000BF311600088D
:1016000079160008791600087916000843160008B4
:101610007916000879160008791600085516000892
:101620007916000879160008791600086716000870
:101630007B681B687A681268D26822F40072DA60EC
:101640001BE07B681B687A681268D26822F48062AB
:10165000DA6012E07B681B687A681268D26822F44C
:101660000062DA6009E07B681B687A681268D268F9
:1016700022F48052DA6000E000BF7B681B68002221
:101680003968184600F009FE7B681B681A6A41F247
:1016900011131340002B0FD17B681B681A6A40F2AC
:1016A00044431340002B07D17B681B687A6812689B
:1016B000526C22F400425A647B681B681A6A41F239
:1016C00011131340002B0FD17B681B681A6A40F27C
:1016D00044431340002B07D17B681B687A6812686B
:1016E000126822F001021A607B68012283F83D2013
:1016F000002318460837BD4680BD80B582B000AFD4
:10170000786039607B681B6804223968184600F0ED
:10171000C4FD7B681B687A681268526C42F4004210
:101720005A64002318460837BD4680BD80B582B094
:1017300000AF786039607B681B6800223968184602
:1017400000F0ABFD7B681B681A6A41F2111313406D
:10175000002B0FD17B681B681A6A40F24443134088
:10176000002B07D17B681B687A681268526C22F4E0
:1017700000425A647B681B681A6A41F211131340D5
:10178000002B0FD17B681B681A6A40F24443134058
:10179000002B07D17B681B687A681268126822F0F8
:1017A00001021A60002318460837BD4680BD80B587
:1017B00082B000AF786039607B681B687A68126815
:1017C000D26842F00202DA607B681B687A681268AD
:1017D000D26842F00402DA607B681B680422396830
:1017E000184600F05AFD7B681B687A681268526CD4
:1017F00042F400425A64002318460837BD4680BDB3
:1018000080B582B000AF786039607B681B687A6809
:101810001268D26822F00202DA607B681B687A687C
:101820001268D26822F00402DA607B681B6800222A
:101830003968184600F031FD7B681B681A6A41F26E
:1018400011131340002B0FD17B681B681A6A40F2FA
:1018500044431340002B07D17B681B687A681268E9
:10186000526C22F400425A647B681B681A6A41F287
:1018700011131340002B0FD17B681B681A6A40F2CA
:1018800044431340002B07D17B681B687A681268B9
:10189000126822F001021A60002318460837BD467C
:1018A00080BD80B485B000AFF860B9607A60FB6835
:1018B00093F83C30012B01D102233CE0FB6801226C
:1018C00083F83C20BB68002B08D0BB68102B05D0E8
:1018D000BB68202B02D0BB68302B0FD1FB681B6884
:1018E000FA681268926822F070029A60FB681B68BE
:1018F000FA6812689168BA680A439A60FB681B68C4
:10190000FA681268526842F001025A60FB681B686C
:10191000FA681268526822F004025A60FB681B6879
:10192000FA68126851687A680A435A60FB680022B4
:1019300083F83C20002318461437BD465DF8047B2D
:10194000704780B485B000AFF860B9607A60FB681A
:1019500093F83C30012B01D1022344E0FB680122C3
:1019600083F83C20BB68002B08D0BB68102B05D047
:10197000BB68202B02D0BB68302B0FD1FB681B68E3
:10198000FA681268926822F070029A60FB681B681D
:10199000FA6812689168BA680A439A60FB681B6823
:1019A000FA681268526842F001025A60FB681B68CC
:1019B000FA681268526822F004025A60FB681B68D9
:1019C000FA68126851687A680A435A60FB681B68B3
:1019D000FA681268D26842F02002DA60FB680022DE
:1019E00083F83C20002318461437BD465DF8047B7D
:1019F000704780B485B000AFF860B9607A60FB686A
:101A000093F83C30012B01D102234CE0FB6801220A
:101A100083F83C20BB68002B08D0BB68102B05D096
:101A2000BB68202B02D0BB68302B0FD1FB681B6832
:101A3000FA681268926822F070029A60FB681B686C
:101A4000FA6812689168BA680A439A60FB681B6872
:101A5000FA681268526842F001025A60FB681B681B
:101A6000FA681268526822F004025A60FB681B6828
:101A7000FA68126851687A680A435A60FB685B6BBF
:101A80000C4ADA63FB685B6B0B4ADA64FB681B6821
:101A9000FA681268D26842F40052DA60FB680022E9
:101AA00083F83C20002318461437BD465DF8047BBC
:101AB000704700BF691D0008D1CA000880B485B016
:101AC00000AF786039607B6893F83C30012B01D11E
:101AD00002233DE07B68012283F83C207B681B6881
:101AE0005B68FB607B681B689B68BB607B681B68EE
:101AF0001A4A934204D07B681B68194A934208D162
:101B0000FB6823F47003FB603B685B68FA6813436F
:101B1000FB60FB6823F07003FB603B681B68FA689E
:101B20001343FB60BB6823F08003BB603B689B688A
:101B3000BA681343BB607B681B68FA685A607B68AD
:101B40001B68BA689A607B68002283F83C200023F7
:101B500018461437BD465DF8047B7047000001400D
:101B60000004014080B485B000AF78603960002384
:101B7000FB607B6893F83C30012B01D1022370E0BD
:101B80007B68012283F83C207B68022283F83D2099
:101B9000FB6823F0FF023B68DB681343FB60FB68D4
:101BA00023F440723B689B681343FB60FB6823F49B
:101BB00080623B685B681343FB60FB6823F4006250
:101BC0003B681B681343FB60FB6823F480523B684F
:101BD0001B691343FB60FB6823F400523B685B699D
:101BE0001343FB60FB6823F480423B689B6A13430A
:101BF000FB60FB6823F400423B689B6A1343FB6075
:101C0000FB6823F470223B689B691B041343FB6051
:101C10007B681B68164A934204D07B681B68154A90
:101C2000934215D1FB6823F470023B685B6A1B0585
:101C30001343FB60FB6823F080723B68DB6913434E
:101C4000FB60FB6823F000723B681B6A1343FB6078
:101C50007B681B68FA685A647B68002283F83C2022
:101C6000002318461437BD465DF8047B704700BF5B
:101C7000000001400004014080B483B000AF7860F0
:101C800039607B6893F83C30012B01D1022310E0CE
:101C90007B68012283F83C207B681B683A681A65E0
:101CA0007B68012283F83D207B68002283F83C207A
:101CB000002318460C37BD465DF8047B704780B49E
:101CC00083B000AF786039607B6893F83C30012BBB
:101CD00001D1022320E07B68012283F83C207B684D
:101CE000022283F83D207B681B687A681268926D37
:101CF00022F060429A657B681B687A681268916D71
:101D00003A680A439A657B68012283F83D207B6824
:101D1000002283F83C20002318460C37BD465DF8AE
:101D2000047B704780B483B000AF786000BF0C378D
:101D3000BD465DF8047B704780B483B000AF786027
:101D400000BF0C37BD465DF8047B704780B483B09C
:101D500000AF78607B6893F83D30DBB218460C37F3
:101D6000BD465DF8047B704780B584B000AF7860F5
:101D70007B689B6BFB60FB68012283F83D20F86861
:101D8000FFF7D0FF00BF1037BD4680BD80B586B0DD
:101D900000AFF860B9607A6000237B61FB6893F85C
:101DA0003C30012B01D10223DEE0FB68012283F8E5
:101DB0003C20BB685B68002B02D0012B0DD017E0E4
:101DC000FB681B689B687B617B6923F47F437B61B5
:101DD000FB681B687A699A600AE0FB681868BB6850
:101DE000D968BB689A68BB681B690BF0E2FB00BF4F
:101DF0007B68142B00F2B28001A252F823F000BFDE
:101E0000551E00085D1F00085D1F00085D1F0008CB
:101E1000811E00085D1F00085D1F00085D1F00088F
:101E2000AD1E00085D1F00085D1F00085D1F000853
:101E3000D91E00085D1F00085D1F00085D1F000817
:101E4000051F00085D1F00085D1F00085D1F0008DA
:101E5000311F0008BB681B68002B08D0FB681B689B
:101E6000FA681268926942F080029A6177E0FB6832
:101E70001B68FA681268926922F080029A616EE02B
:101E8000BB681B68002B08D0FB681B68FA681268E7
:101E9000926942F400429A6161E0FB681B68FA684B
:101EA0001268926922F400429A6158E0BB681B688C
:101EB000002B08D0FB681B68FA681268D26942F0F0
:101EC0008002DA614BE0FB681B68FA681268D2692D
:101ED00022F08002DA6142E0BB681B68002B08D068
:101EE000FB681B68FA681268D26942F40042DA6142
:101EF00035E0FB681B68FA681268D26922F4004278
:101F0000DA612CE0BB681B68002B08D0FB681B68FB
:101F1000FA681268526D42F080025A651FE0FB6851
:101F20001B68FA681268526D22F080025A6516E04A
:101F3000BB681B68002B08D0FB681B68FA68126836
:101F4000526D42F400425A6509E0FB681B68FA686A
:101F50001268526D22F400425A6500E000BFFB682F
:101F6000002283F83C20002318461837BD4680BD68
:101F700080B584B000AFF860B9607A60FB6893F810
:101F80003C30012B01D102236CE0FB68012283F875
:101F90003C20FB68022283F83D207B68142B57D835
:101FA00001A252F823F000BFFD1F000851200008D5
:101FB00051200008512000080B2000085120000883
:101FC0005120000851200008192000085120000865
:101FD0005120000851200008272000085120000847
:101FE0005120000851200008352000085120000829
:101FF000512000085120000843200008FB681B689E
:10200000B96818460AF0BAFE23E0FB681B68B96895
:1020100018460AF029FF1CE0FB681B68B9681846DF
:102020000AF09CFF15E0FB681B68B96818460BF0C6
:102030000FF80EE0FB681B68B968184600F050F90D
:1020400007E0FB681B68B968184600F0A1F900E0DA
:1020500000BFFB68012283F83D20FB68002283F863
:102060003C20002318461037BD4680BD80B584B0A3
:1020700000AFF860B9607A60FB6893F83C30012BE0
:1020800001D1022305E1FB68012283F83C20FB68B3
:10209000022283F83D207B68142B00F2F08001A21D
:1020A00052F823F0F92000087F2200087F22000860
:1020B0007F220008392100087F2200087F220008C3
:1020C0007F2200087B2100087F2200087F22000871
:1020D0007F220008BB2100087F2200087F22000821
:1020E0007F220008FD2100087F2200087F220008CF
:1020F0007F2200083D220008FB681B68B96818466B
:102100000AF03CFEFB681B68FA681268926942F0AC
:1021100008029A61FB681B68FA681268926922F0EB
:1021200004029A61FB681B68FA6812689169BA68D0
:1021300012690A439A61A3E0FB681B68B9681846F4
:102140000AF092FEFB681B68FA681268926942F412
:1021500000629A61FB681B68FA681268926922F44F
:1021600080629A61FB681B68FA6812689169BA68B4
:10217000126912020A439A6182E0FB681B68B9681F
:1021800018460AF0EBFEFB681B68FA681268D26911
:1021900042F00802DA61FB681B68FA681268D269CB
:1021A00022F00402DA61FB681B68FA681268D169E0
:1021B000BA6812690A43DA6162E0FB681B68B968B1
:1021C00018460AF045FFFB681B68FA681268D26976
:1021D00042F40062DA61FB681B68FA681268D2692F
:1021E00022F48062DA61FB681B68FA681268D169C0
:1021F000BA68126912020A43DA6141E0FB681B689F
:10220000B968184600F06CF8FB681B68FA68126839
:10221000526D42F008025A65FB681B68FA68126842
:10222000526D22F004025A65FB681B68FA68126856
:10223000516DBA6812690A435A6521E0FB681B6850
:10224000B968184600F0A4F8FB681B68FA681268C1
:10225000526D42F400625A65FB681B68FA681268A6
:10226000526D22F480625A65FB681B68FA68126836
:10227000516DBA68126912020A435A6500E000BF44
:10228000FB68012283F83D20FB68002283F83C2094
:10229000002318461037BD4680BD80B487B000AF1C
:1022A000F860B9607A6000237B610422BB6802FA9F
:1022B00003F37B61FB681A6A7B69DB431A40FB68A6
:1022C0001A62FB681A6A7968BB6801FA03F31A4359
:1022D000FB681A6200BF1C37BD465DF8047B70477F
:1022E00080B487B000AF7860396000233B61002381
:1022F000FB6000237B617B681B6A23F480327B6870
:102300001A627B681B6AFB607B685B687B617B6829
:102310005B6D3B613A691B4B13403B613B681B683B
:102320003A6913433B61FB6823F40033FB603B686D
:102330009B681B04FA681343FB607B68124A934254
:1023400003D07B68114A934209D17B6923F480331F
:102350007B613B685B691B027A6913437B617B6825
:102360007A695A607B683A695A653B685A687B6843
:102370009A657B68FA681A6200BF1C37BD465DF833
:10238000047B70478FFFFEFF000001400004014006
:1023900080B487B000AF7860396000233B610023D0
:1023A000FB6000237B617B681B6A23F480127B68DF
:1023B0001A627B681B6AFB607B685B687B617B6879
:1023C0005B6D3B613A691C4B13403B613B681B688A
:1023D0001B023A6913433B61FB6823F40013FB6063
:1023E0003B689B681B05FA681343FB607B68134AD4
:1023F000934203D07B68124A934209D17B6923F44C
:1024000080237B613B685B699B027A6913437B6134
:102410007B687A695A607B683A695A653B685A6892
:102420007B68DA657B68FA681A6200BF1C37BD46B4
:102430005DF8047B704700BFFF8FFFFE0000014086
:102440000004014080B582B000AF78607B68002B4B
:1024500001D101237EE07B6893F84130DBB2002B91
:1024600006D17B68002283F84020786800F0A7F846
:102470007B68242283F841207B681B687A68126895
:10248000126822F001021A607B681B687A68526841
:1024900022F070621A617B681B687A681268926821
:1024A00022F400429A607B68DB68012B07D17B68CD
:1024B0001B687A68926842F400429A6006E07B6882
:1024C0001B687A68926842F404429A607B68DB6811
:1024D000022B04D17B681B684FF400625A607B6852
:1024E0001A687B681B6859681C4B0B4353607B68F8
:1024F0001B687A681268D26822F40042DA607B684E
:102500001B687A6811697A68526911437A6892691E
:1025100012020A43DA607B681B687A68D1697A68BC
:10252000126A0A431A607B681B687A68126812682C
:1025300042F001021A607B6800225A647B68202204
:1025400083F841207B6800221A637B68002283F8AD
:102550004220002318460837BD4680BD0080000297
:1025600080B582B000AF78607B68002B01D1012379
:1025700021E07B68242283F841207B681B687A680D
:102580001268126822F001021A60786800F021F8DF
:102590007B6800225A647B68002283F841207B68B4
:1025A00000221A637B68002283F842207B680022A5
:1025B00083F84020002318460837BD4680BD80B40C
:1025C00083B000AF786000BF0C37BD465DF8047B78
:1025D000704780B483B000AF786000BF0C37BD4651
:1025E0005DF8047B704780B588B002AFF8607A6010
:1025F0001A460B467B8113463B8100237B61FB68B7
:1026000093F84130DBB2202B40F0E680FB6893F872
:102610004030012B01D10223DFE0FB68012283F867
:10262000402003F075FF78617B6900931923012234
:102630004FF40041F86803F084F90346002B01D001
:102640000323CAE0FB68212283F84120FB681022A3
:1026500083F84220FB6800225A64FB687A685A6259
:10266000FB683A895A85FB6800225A63FB685B8DD8
:102670009BB2FF2B0FD9FB68FF221A85FB681B8DCD
:10268000DAB279894FF4005300934FF08073F86801
:1026900003F0CAFA71E0FB685B8D9AB2FB681A8599
:1026A000FB681B8DDAB279894FF4005300934FF029
:1026B0000073F86803F0B8FA5FE07A69396AF8687D
:1026C00003F079F90346002B07D0FB685B6C042B01
:1026D00001D1012381E003237FE0FB681A68FB68D6
:1026E0005B6A581CF96848621B789362FB685B8DD3
:1026F0009BB2013B9AB2FB685A85FB681B8D013B7C
:102700009AB2FB681A85FB681B8D002B35D1FB68DC
:102710005B8D9BB2002B30D07B6900933B6A00221B
:102720008021F86803F00DF90346002B01D0032344
:1027300053E0FB685B8D9BB2FF2B0ED9FB68FF2239
:102740001A85FB681B8DDAB27989002300934FF05C
:102750008073F86803F068FA0FE0FB685B8D9AB24B
:10276000FB681A85FB681B8DDAB279890023009318
:102770004FF00073F86803F057FAFB685B8D9BB26B
:10278000002B9AD17A69396AF86803F054F9034644
:10279000002B07D0FB685B6C042B01D101231CE0EC
:1027A00003231AE0FB681B682022DA61FB681A68C1
:1027B000FB681B6859680B4B0B405360FB68202279
:1027C00083F84120FB68002283F84220FB68002246
:1027D00083F84020002300E0022318461837BD4646
:1027E00080BD00BF00E800FE80B588B002AFF86091
:1027F0007A601A460B467B8113463B8100237B613E
:10280000FB6893F84130DBB2202B40F0E780FB6897
:1028100093F84030012B01D10223E0E0FB68012254
:1028200083F8402003F074FE78617B6900931923DC
:1028300001224FF40041F86803F083F80346002BAF
:1028400001D00323CBE0FB68222283F84120FB6800
:10285000102283F84220FB6800225A64FB687A68E1
:102860005A62FB683A895A85FB6800225A63FB6802
:102870005B8D9BB2FF2B0FD9FB68FF221A85FB688B
:102880001B8DDAB279894FF4105300934FF08073A7
:10289000F86803F0C9F972E0FB685B8D9AB2FB68D7
:1028A0001A85FB681B8DDAB279894FF410530093B7
:1028B0004FF00073F86803F0B7F960E07A69396A9D
:1028C000F86803F0F4F80346002B07D0FB685B6C54
:1028D000042B01D1012382E0032380E0FB685B6AC3
:1028E000591CFA685162FA681268526AD2B21A70B8
:1028F000FB681B8D013B9AB2FB681A85FB685B8DF8
:102900009BB2013B9AB2FB685A85FB681B8D002B7A
:1029100035D1FB685B8D9BB2002B30D07B69009377
:102920003B6A00228021F86803F00BF80346002B75
:1029300001D0032353E0FB685B8D9BB2FF2B0ED9C4
:10294000FB68FF221A85FB681B8DDAB279890023A8
:1029500000934FF08073F86803F066F90FE0FB68AE
:102960005B8D9AB2FB681A85FB681B8DDAB2798998
:10297000002300934FF00073F86803F055F9FB68EB
:102980005B8D9BB2002B99D17A69396AF86803F0A4
:1029900052F80346002B07D0FB685B6C042B01D177
:1029A00001231CE003231AE0FB681B682022DA6184
:1029B000FB681A68FB681B6859680B4B0B40536037
:1029C000FB68202283F84120FB68002283F8422024
:1029D000FB68002283F84020002300E00223184611
:1029E0001837BD4680BD00BF00E800FE80B588B046
:1029F00002AFF860B9603B601346FB8000237B6147
:102A0000FB6893F84130DBB2202B40F0F580BB68C7
:102A1000002B02D0FB88002B01D10123EDE0FB68E5
:102A200093F84030012B01D10223E6E0FB6801223C
:102A300083F8402003F06CFD7861FB68212283F865
:102A40004120FB68202283F84220FB6800225A6460
:102A5000FB68BA685A62FB68FA885A85FB680022EC
:102A60005A63FB681B68FA681268526822F40042D5
:102A70005A607B6900933B6800220821F86802F0E5
:102A800060FF0346002B09D0FB681B68FA681268D8
:102A9000526842F400425A600323AEE0FB681B68B0
:102AA0000822DA61FB68DB68022B18D17B6900938E
:102AB0003B6800220821F86802F043FF0346002B20
:102AC00009D0FB681B68FA681268526842F4004239
:102AD0005A60032391E0FB681B680822DA617B6976
:102AE00000933B6800224FF48031F86802F029FF20
:102AF0000346002B31D0FB681B68FA6812685268E5
:102B000042F400425A60032377E07A693968F86832
:102B100002F051FF0346002B0FD0FB681B68FA68D8
:102B20001268526842F400425A60FB685B6C042BE6
:102B300001D1012361E003235FE0FB681A68FB68B1
:102B40005B6A581CF96848621B789362FB685B8D6E
:102B50009BB2013B9AB2FB685A85FB685B8D9BB2C6
:102B6000002BD2D17A693968F86802F064FF034615
:102B7000002B11D0FB681B68FA681268526842F497
:102B800000425A60FB685B6C042B03D1FB68002297
:102B90005A6401E0032330E0FB681B682022DA61FD
:102BA0007B6900933B6801224FF40041F86802F012
:102BB000C8FE0346002B09D0FB681B68FA68126840
:102BC000526842F400425A60032316E0FB681B6817
:102BD000FA681268526842F400425A60FB68202288
:102BE00083F84120FB68002283F84220FB68002222
:102BF00083F84020002300E0022318461837BD4622
:102C000080BD80B588B002AFF860B9603B60134604
:102C1000FB8000237B61FB6893F84130DBB2202B03
:102C200040F0EF80BB68002B02D0FB88002B01D165
:102C30000123E7E0FB6893F84030012B01D1022328
:102C4000E0E0FB68012283F8402003F061FC78613A
:102C5000FB68222283F84120FB68202283F842206F
:102C6000FB6800225A64FB68BA685A62FB68FA88FB
:102C70005A85FB6800225A63FB681B68FA68126871
:102C8000526822F400425A607B6900933B6800223C
:102C90000821F86802F055FE0346002B09D0FB68B6
:102CA0001B68FA681268526842F400425A600323B3
:102CB000A8E0FB681B680822DA617B6900933B6827
:102CC00001224FF48031F86802F03BFE0346002BEE
:102CD0004AD0FB681B68FA681268526842F40042E6
:102CE0005A6003238EE07A693968F86802F0DFFEE3
:102CF0000346002B27D0FB681B68FA6812685268ED
:102D000042F400425A60FB681B689B6903F00403AD
:102D1000042B10D1FB685B6A591CFA685162FA688F
:102D20001268526AD2B21A70FB685B8D9BB2013B8B
:102D30009AB2FB685A85FB685B6C202B01D1032398
:102D400060E001235EE0FB685B6A591CFA6851622F
:102D5000FA681268526AD2B21A70FB685B8D9BB235
:102D6000013B9AB2FB685A85FB685B8D9BB2002BD6
:102D7000B9D17A693968F86802F05DFE0346002B24
:102D80000FD0FB681B68FA681268526842F4004270
:102D90005A60FB685B6C042B01D1012332E00323F2
:102DA00030E0FB681B682022DA617B6900933B6896
:102DB00001224FF40041F86802F0C3FD0346002BE6
:102DC00009D0FB681B68FA681268526842F4004236
:102DD0005A60032316E0FB681B68FA6812685268A1
:102DE00042F400425A60FB68202283F84120FB68CD
:102DF000002283F84220FB68002283F84020002351
:102E000000E0022318461837BD4680BD80B588B063
:102E100002AFF8607A601A460B467B8113463B810D
:102E200000237B61FB6893F84130DBB2202B54D147
:102E3000FB681B689B6903F40043B3F5004F01D1A5
:102E400002234BE0FB6893F84030012B01D10223B1
:102E500044E0FB68012283F84020FB68212283F8CC
:102E60004120FB68102283F84220FB6800225A644C
:102E7000FB687A685A62FB683A895A85FB68194A86
:102E8000DA62FB68184A5A63FB685B8D9BB2FF2BC2
:102E900006D9FB68FF221A854FF080737B6107E03B
:102EA000FB685B8D9AB2FB681A854FF000737B61FB
:102EB000FB681B8DDAB279894FF4005300937B696C
:102EC000F86802F0B1FEFB68002283F8402001217F
:102ED000F86802F0D7FE002300E0022318461837F6
:102EE000BD4680BD0000FFFFA348000880B588B044
:102EF00002AFF8607A601A460B467B8113463B812D
:102F000000237B61FB6893F84130DBB2202B54D166
:102F1000FB681B689B6903F40043B3F5004F01D1C4
:102F200002234BE0FB6893F84030012B01D10223D0
:102F300044E0FB68012283F84020FB68222283F8EA
:102F40004120FB68102283F84220FB6800225A646B
:102F5000FB687A685A62FB683A895A85FB68194AA5
:102F6000DA62FB68184A5A63FB685B8D9BB2FF2BE1
:102F700006D9FB68FF221A854FF080737B6107E05A
:102F8000FB685B8D9AB2FB681A854FF000737B611A
:102F9000FB681B8DDAB279894FF4105300937B697B
:102FA000F86802F041FEFB68002283F8402002210D
:102FB000F86802F067FE002300E002231846183785
:102FC000BD4680BD0000FFFFA348000880B584B067
:102FD00000AFF860B9601346FB80FB6893F841309E
:102FE000DBB2202B38D1FB6893F84030012B01D1A4
:102FF000022332E0FB68012283F84020FB68212293
:1030000083F84120FB68202283F84220FB680022DD
:103010005A64FB681B68FA681268526822F400421E
:103020005A60FB68BA685A62FB68FA885A85FB687E
:103030005B8D9AB2FB681A85FB680A4ADA62FB6804
:10304000094A5A63FB68002283F840200521F8688A
:1030500002F018FE002300E0022318461037BD4698
:1030600080BD00BF0000FFFFCD4A000880B584B0DE
:1030700000AFF860B9601346FB80FB6893F84130FD
:10308000DBB2202B38D1FB6893F84030012B01D103
:10309000022332E0FB68012283F84020FB682222F1
:1030A00083F84120FB68202283F84220FB6800223D
:1030B0005A64FB681B68FA681268526822F400427E
:1030C0005A60FB68BA685A62FB68FA885A85FB68DE
:1030D0005B8D9AB2FB681A85FB680A4ADA62FB6864
:1030E000094A5A63FB68002283F840200621F868E9
:1030F00002F0C8FD002300E0022318461037BD4649
:1031000080BD00BF0000FFFFCD4A000880B588B039
:1031100002AFF8607A601A460B467B8113463B810A
:1031200000237B61FB6893F84130DBB2202B40F039
:103130009D80FB681B689B6903F40043B3F5004F57
:1031400001D1022393E0FB6893F84030012B01D1B9
:1031500002238CE0FB68012283F84020FB682122D7
:1031600083F84120FB68102283F84220FB6800228C
:103170005A64FB687A685A62FB683A895A85FB6828
:103180003D4ADA62FB683D4A5A63FB685B8D9BB23D
:10319000FF2B06D9FB68FF221A854FF080737B61F5
:1031A00007E0FB685B8D9AB2FB681A854FF00073ED
:1031B0007B61FB681B8D002B3FD0FB689B6B304A0B
:1031C000DA63FB689B6B2F4ADA64FB689B6B002217
:1031D0001A64FB689B6B00221A65FB68986B796820
:1031E000FB681B6828331A46FB681B8D32F0F5FF1D
:1031F000FB681B8DDAB279894FF4005300937B6929
:10320000F86802F011FDFB685B8D9AB2FB681B8DBC
:10321000D31A9AB2FB685A85FB68002283F84020D3
:103220001121F86802F02EFDFB681B68FA6812682D
:10323000126842F480421A6016E0FB68124A5A6330
:10324000FB681B8DDAB279894FF4005300934FF07D
:103250000073F86802F0E8FCFB68002283F8402065
:103260000121F86802F00EFD002300E00223184659
:103270001837BD4680BD00BF0000FFFFA14C00080D
:1032800089570008BD580008A348000880B588B0D9
:1032900002AFF8607A601A460B467B8113463B8189
:1032A00000237B61FB6893F84130DBB2202B40F0B8
:1032B0009D80FB681B689B6903F40043B3F5004FD6
:1032C00001D1022393E0FB6893F84030012B01D138
:1032D00002238CE0FB68012283F84020FB68222255
:1032E00083F84120FB68102283F84220FB6800220B
:1032F0005A64FB687A685A62FB683A895A85FB68A7
:103300003D4ADA62FB683D4A5A63FB685B8D9BB2BB
:10331000FF2B06D9FB68FF221A854FF080737B6173
:1033200007E0FB685B8D9AB2FB681A854FF000736B
:103330007B61FB681B8D002B3FD0FB68DB6B304A49
:10334000DA63FB68DB6B2F4ADA64FB68DB6B002215
:103350001A64FB68DB6B00221A65FB68D86BFB689C
:103360001B68243319467A68FB681B8D32F035FFE1
:10337000FB681B8DDAB279894FF4105300937B6997
:10338000F86802F051FCFB685B8D9AB2FB681B8DFC
:10339000D31A9AB2FB685A85FB68002283F8402052
:1033A0001121F86802F06EFCFB681B68FA6812686D
:1033B000126842F400421A6016E0FB68124A5A632F
:1033C000FB681B8DDAB279894FF4105300934FF0EC
:1033D0000073F86802F028FCFB68002283F84020A4
:1033E0000121F86802F04EFC002300E00223184699
:1033F0001837BD4680BD00BF0000FFFFA14C00088C
:1034000023580008BD580008A348000880B584B0C0
:1034100000AFF860B9601346FB80FB6893F8413059
:10342000DBB2202B63D1BB68002B02D0FB88002BC2
:1034300001D101235CE0FB6893F84030012B01D1FE
:10344000022355E0FB68012283F84020FB6821221B
:1034500083F84120FB68202283F84220FB68002289
:103460005A64FB68BA685A62FB68FA885A85FB6836
:103470005B8D9AB2FB681A85FB681F4ADA62FB68AB
:103480001E4A5A63FB689B6B1D4ADA63FB689B6BA1
:103490001C4ADA64FB689B6B00221A64FB689B6B16
:1034A00000221A65FB68986BB968FB681B682833B3
:1034B0001A46FB681B8D32F090FEFB681B68FA68A9
:1034C0001268526822F400425A60FB68002283F8B6
:1034D00040200421F86802F0D5FBFB681B68FA68FD
:1034E0001268126842F480421A60002300E002234E
:1034F00018461037BD4680BD0000FFFFF54D00089F
:103500000F580008BD58000880B584B000AFF860BF
:10351000B9601346FB80FB6893F84130DBB2202B87
:1035200063D1BB68002B02D0FB88002B01D10123A3
:103530005CE0FB6893F84030012B01D1022355E099
:10354000FB68012283F84020FB68222283F8412097
:10355000FB68202283F84220FB6800225A64FB6843
:10356000BA685A62FB68FA885A85FB685B8D9AB222
:10357000FB681A85FB681F4ADA62FB681E4A5A63B9
:10358000FB68DB6B1D4ADA63FB68DB6B1C4ADA64A1
:10359000FB68DB6B00221A64FB68DB6B00221A6598
:1035A000FB68D86BFB681B6824331946BA68FB6854
:1035B0001B8D32F012FEFB681B68FA6812685268B5
:1035C00022F400425A60FB68002283F84020042164
:1035D000F86802F057FBFB681B68FA68126812680B
:1035E00042F400421A60002300E00223184610371C
:1035F000BD4680BD0000FFFFF54D0008A95800083A
:10360000BD58000880B588B002AFF8600846114682
:103610001A4603467B810B463B811346FB80002301
:103620007B61FB6893F84130DBB2202B40F00981CD
:103630003B6A002B02D0BB8C002B01D1012301E19E
:10364000FB6893F84030012B01D10223FAE0FB68BC
:10365000012283F8402002F05BFF78617B690093D0
:10366000192301224FF40041F86802F06AF9034679
:10367000002B01D00323E5E0FB68212283F84120E1
:10368000FB68402283F84220FB6800225A64FB68F2
:103690003A6A5A62FB68BA8C5A85FB6800225A6300
:1036A000F8883A8979897B690193BB6A009303465C
:1036B000F86801F00BFC0346002B0FD0FB685B6C35
:1036C000042B05D1FB68002283F840200123B9E0D8
:1036D000FB68002283F840200323B3E0FB685B8D86
:1036E0009BB2FF2B0ED9FB68FF221A85FB681B8D4E
:1036F000DAB27989002300934FF08073F86802F002
:1037000093FA0FE0FB685B8D9AB2FB681A85FB6841
:103710001B8DDAB27989002300934FF00073F868AB
:1037200002F082FA7A69B96AF86802F044F903464D
:10373000002B07D0FB685B6C042B01D1012381E0D7
:1037400003237FE0FB681A68FB685B6A581CF96812
:1037500048621B789362FB685B8D9BB2013B9AB217
:10376000FB685A85FB681B8D013B9AB2FB681A8582
:10377000FB681B8D002B35D1FB685B8D9BB2002B4A
:1037800030D07B690093BB6A00228021F86802F088
:10379000D8F80346002B01D0032353E0FB685B8D70
:1037A0009BB2FF2B0ED9FB68FF221A85FB681B8D8D
:1037B000DAB27989002300934FF08073F86802F041
:1037C00033FA0FE0FB685B8D9AB2FB681A85FB68E1
:1037D0001B8DDAB27989002300934FF00073F868EB
:1037E00002F022FAFB685B8D9BB2002B9AD17A69BA
:1037F000B96AF86802F01FF90346002B07D0FB688E
:103800005B6C042B01D101231CE003231AE0FB684D
:103810001B682022DA61FB681A68FB681B6859681C
:103820000A4B0B405360FB68202283F84120FB6861
:10383000002283F84220FB68002283F84020002306
:1038400000E0022318461837BD4680BD00E800FEA0
:1038500080B588B002AFF860084611461A460346A4
:103860007B810B463B811346FB8000237B61FB6819
:1038700093F84130DBB2202B40F009813B6A002BEA
:1038800002D0BB8C002B01D1012301E1FB6893F82E
:103890004030012B01D10223FAE0FB68012283F8BA
:1038A000402002F035FE78617B69009319230122E4
:1038B0004FF40041F86802F044F80346002B01D0B1
:1038C0000323E5E0FB68222283F84120FB684022C5
:1038D00083F84220FB6800225A64FB683A6A5A6205
:1038E000FB68BA8C5A85FB6800225A63F8883A89CB
:1038F00079897B690193BB6A00930346F86801F0FC
:1039000044FB0346002B0FD0FB685B6C042B05D1F6
:10391000FB68002283F840200123B9E0FB68002205
:1039200083F840200323B3E0FB685B8D9BB2FF2B41
:103930000FD9FB68FF221A85FB681B8DDAB27989E3
:103940004FF4105300934FF08073F86802F06CF955
:1039500010E0FB685B8D9AB2FB681A85FB681B8DD3
:10396000DAB279894FF4105300934FF00073F8687E
:1039700002F05AF97B690093BB6A00220421F868BF
:1039800001F0DFFF0346002B01D0032380E0FB683A
:103990005B6A591CFA685162FA681268526AD2B2BC
:1039A0001A70FB681B8D013B9AB2FB681A85FB6895
:1039B0005B8D9BB2013B9AB2FB685A85FB681B8DFD
:1039C000002B35D1FB685B8D9BB2002B30D07B691F
:1039D0000093BB6A00228021F86801F0B2FF034621
:1039E000002B01D0032353E0FB685B8D9BB2FF2BC0
:1039F0000ED9FB68FF221A85FB681B8DDAB2798924
:103A0000002300934FF08073F86802F00DF90FE087
:103A1000FB685B8D9AB2FB681A85FB681B8DDAB276
:103A20007989002300934FF00073F86802F0FCF8E6
:103A3000FB685B8D9BB2002B9CD17A69B96AF868F0
:103A400001F0F9FF0346002B07D0FB685B6C042BE9
:103A500001D101231CE003231AE0FB681B6820222C
:103A6000DA61FB681A68FB681B6859680A4B0B40EF
:103A70005360FB68202283F84120FB68002283F812
:103A80004220FB68002283F84020002300E002234C
:103A900018461837BD4680BD00E800FE80B588B0E6
:103AA00002AFF860084611461A4603467B810B4672
:103AB0003B811346FB8000233B6100237B61FB6855
:103AC00093F84130DBB2202B7CD13B6A002B02D033
:103AD000BB8C002B01D1012375E0FB681B689B693F
:103AE00003F40043B3F5004F01D102236BE0FB6800
:103AF00093F84030012B01D1022364E0FB680122DE
:103B000083F8402002F004FD3861FB68212283F82D
:103B10004120FB68402283F84220FB6800225A645F
:103B2000FB683A6A5A62FB68BA8C5A85FB68284A75
:103B3000DA62FB68274A5A63FB685B8D9BB2FF2BF6
:103B400006D9FB68FF221A854FF080737B6107E07E
:103B5000FB685B8D9AB2FB681A854FF000737B613E
:103B6000F8883A8979893B690193192300930346C0
:103B7000F86801F0ABF90346002B0FD0FB685B6CD3
:103B8000042B05D1FB68002283F8402001231AE0B2
:103B9000FB68002283F84020032314E0FB681B8DA0
:103BA000DAB27989002300937B69F86802F03CF867
:103BB000FB68002283F840200121F86802F062F8D7
:103BC000002300E0022318461837BD4680BD00BF21
:103BD0000000FFFFA348000880B588B002AFF8607E
:103BE000084611461A4603467B810B463B81134625
:103BF000FB8000233B6100237B61FB6893F841302D
:103C0000DBB2202B7DD13B6A002B02D0BB8C002B7A
:103C100001D1012376E0FB681B689B6903F4004334
:103C2000B3F5004F01D102236CE0FB6893F84030FC
:103C3000012B01D1022365E0FB68012283F84020BB
:103C400002F066FC3861FB68222283F84120FB68A1
:103C5000402283F84220FB6800225A64FB683A6ADB
:103C60005A62FB68BA8C5A85FB68284ADA62FB689C
:103C7000274A5A63FB685B8D9BB2FF2B06D9FB6812
:103C8000FF221A854FF080737B6107E0FB685B8D34
:103C90009AB2FB681A854FF000737B61F8883A8905
:103CA00079893B690193192300930346F86801F071
:103CB0006CF90346002B0FD0FB685B6C042B05D11D
:103CC000FB68002283F8402001231BE0FB680022F0
:103CD00083F84020032315E0FB681B8DDAB2798955
:103CE0004FF4105300937B69F86801F09DFFFB6867
:103CF000002283F840200221F86801F0C3FF00236E
:103D000000E0022318461837BD4680BD0000FFFFC3
:103D1000A348000880B588B002AFF8600846114695
:103D20001A4603467B810B463B811346FB800023EA
:103D30003B6100237B61FB6893F84130DBB2202BB1
:103D400040F0A9803B6A002B02D0BB8C002B01D134
:103D50000123A1E0FB681B689B6903F40043B3F5F2
:103D6000004F01D1022397E0FB6893F84030012B0C
:103D700001D1022390E0FB68012283F8402002F089
:103D8000C7FB3861FB68212283F84120FB68402291
:103D900083F84220FB6800225A64FB683A6A5A6240
:103DA000FB68BA8C5A85FB683D4ADA62FB683D4A7B
:103DB0005A63FB685B8D9BB2FF2B06D9FB68FF2221
:103DC0001A854FF080737B6107E0FB685B8D9AB2C8
:103DD000FB681A854FF000737B61F8883A8979890E
:103DE0003B690193192300930346F86801F06EF8CC
:103DF0000346002B0FD0FB685B6C042B05D1FB68DE
:103E0000002283F84020012346E0FB68002283F86B
:103E10004020032340E0FB689B6B234ADA63FB6886
:103E20009B6B224ADA64FB689B6B00221A64FB6876
:103E30009B6B00221A65FB68986B396AFB681B68EC
:103E400028331A46FB681B8D32F0C7F9FB681B8DBF
:103E5000DAB27989002300937B69F86801F0E4FE07
:103E6000FB685B8D9AB2FB681B8DD31A9AB2FB6814
:103E70005A85FB68002283F840201121F86801F080
:103E800001FFFB681B68FA681268126842F48042FE
:103E90001A60002300E0022318461837BD4680BD93
:103EA0000000FFFFA14C000889570008BD5800081A
:103EB00080B588B002AFF860084611461A4603463E
:103EC0007B810B463B811346FB8000233B61002333
:103ED0007B61FB6893F84130DBB2202B40F0AA8075
:103EE0003B6A002B02D0BB8C002B01D10123A2E046
:103EF000FB681B689B6903F40043B3F5004F01D1D5
:103F0000022398E0FB6893F84030012B01D1022393
:103F100091E0FB68012283F8402002F0F9FA386151
:103F2000FB68222283F84120FB68402283F842206C
:103F3000FB6800225A64FB683A6A5A62FB68BA8CD2
:103F40005A85FB683E4ADA62FB683E4A5A63FB6860
:103F50005B8D9BB2FF2B06D9FB68FF221A854FF0C1
:103F600080737B6107E0FB685B8D9AB2FB681A8502
:103F70004FF000737B61F8883A8979893B69019336
:103F8000192300930346F86800F0FFFF0346002B57
:103F90000FD0FB685B6C042B05D1FB68002283F813
:103FA0004020012347E0FB68002283F840200323E0
:103FB00041E0FB68DB6B244ADA63FB68DB6B234A76
:103FC000DA64FB68DB6B00221A64FB68DB6B00229F
:103FD0001A65FB68D86BFB681B68243319463A6A7C
:103FE000FB681B8D32F0F9F8FB681B8DDAB279891A
:103FF0004FF4105300937B69F86801F015FEFB68DD
:104000005B8D9AB2FB681B8DD31A9AB2FB685A85F6
:10401000FB68002283F84020FB681B68FA6812687E
:10402000126842F400421A601121F86801F02AFE79
:10403000002300E0022318461837BD4680BD00BFAC
:104040000000FFFFA14C000823580008BD580008DD
:1040500080B588B002AFF8607A603B600B467B8128
:1040600000237B6100233B61FB6893F84130DBB2A6
:10407000202B40F0C480FB681B689B6903F400435D
:10408000B3F5004F01D10223BAE0FB6893F840304A
:10409000012B01D10223B3E0FB68012283F8402009
:1040A000FB68242283F84120FB6800225A64FB68E5
:1040B0001A68FB68DB68012B05D17B89C3F3090112
:1040C000514B0B4304E07B89C3F3090343F42053B2
:1040D000536002F01DFA786118E03B68B3F1FF3FCE
:1040E00014D03B68002B07D002F012FA02467B691D
:1040F000D21A3B689A4209D9FB68202283F84120F2
:10410000FB68002283F84020032379E0FB681B68EA
:104110009B6903F02003202B0CD0FB681B689B6974
:1041200003F01003102B05D0FB6893F84130DBB28D
:10413000A02BD2D1FB681B689B6903F01003102BE6
:104140001AD07B6900933B6800222021F86801F0B7
:10415000F8FB0346002B01D0032351E0FB681B68EA
:104160002022DA61FB68202283F84120FB680022CC
:1041700083F84020002343E07B6900933B680022E2
:104180002021F86801F0DDFB0346002B01D003235A
:1041900036E0FB681B681022DA61FB681B6820228E
:1041A000DA613B695A1C3A617A68934218D1FB681C
:1041B0001B68FA681268526842F480425A607B6950
:1041C00000933B6800222021F86801F0BAFB034607
:1041D000002B01D0032313E0FB681B682022DA6167
:1041E0003A697B689A42FFF462AFFB68202283F849
:1041F0004120FB68002283F84020032300E00223D3
:1042000018461837BD4680BD0020000280B588B032
:1042100002AFF8607A601A460B467B8113463B81F9
:1042200000237B614FF400533B61FB6893F84130FE
:10423000DBB2202B4FD1FB6893F84030012B01D12A
:10424000022349E0FB68012283F84020FB68212219
:1042500083F84120FB68102283F84220FB6800228B
:104260005A64FB687A685A62FB683A895A85FB6827
:104270003A6ADA62FB681A4A5A63FB685B8D9BB242
:10428000FF2B06D9FB68FF221A854FF080737B61F4
:1042900007E0FB685B8D9AB2FB681A85FB68DB6AF6
:1042A0007B61FB681B6B112B01D100233B61FB6819
:1042B0001B8DDAB279893B6900937B69F86801F05C
:1042C000B3FCFB68002283F840200121F86801F06C
:1042D000D9FC002300E0022318461837BD4680BDF4
:1042E000A348000880B588B002AFF8607A601A462B
:1042F0000B467B8113463B8100237B614FF41053B7
:104300003B61FB6893F84130DBB2202B4FD1FB6857
:1043100093F84030012B01D1022349E0FB680122D0
:1043200083F84020FB68222283F84120FB6810229A
:1043300083F84220FB6800225A64FB687A685A625C
:10434000FB683A895A85FB683A6ADA62FB681A4A5E
:104350005A63FB685B8D9BB2FF2B06D9FB68FF227B
:104360001A854FF080737B6107E0FB685B8D9AB222
:10437000FB681A85FB68DB6A7B61FB681B6B122B91
:1043800001D100233B61FB681B8DDAB279893B695F
:1043900000937B69F86801F047FCFB68002283F812
:1043A00040200221F86801F06DFC002300E00223A8
:1043B00018461837BD4680BDA348000880B584B0B4
:1043C00000AFF860B9603B601346FB80FB6893F870
:1043D0004130DBB203F02803282B5AD1BB68002BF5
:1043E00002D0FB88002B01D1012353E00521F8689E
:1043F00001F0B6FCFB6893F84030012B01D1022399
:1044000048E0FB68012283F84020FB6893F84130C4
:10441000DBB22A2B03D10221F86801F0A1FCFB6872
:10442000292283F84120FB68202283F84220FB6880
:1044300000225A64FB681B68FA681268526822F40A
:1044400000425A60FB68BA685A62FB68FA885A856B
:10445000FB685B8D9AB2FB681A85FB683A68DA6282
:10446000FB680E4A5A63FB681B689B691B0C03F0D0
:104470000103012B03D1FB681B680822DA61FB688A
:10448000002283F840200521F86801F0FBFB00239F
:1044900000E0012318461037BD4680BDCD4A000814
:1044A00080B584B000AFF860B9603B601346FB8014
:1044B000FB6893F84130DBB203F02803282B59D175
:1044C000BB68002B02D0FB88002B01D1012352E0F6
:1044D0000621F86801F044FCFB6893F84030012B9A
:1044E00001D1022347E0FB68012283F84020FB68EA
:1044F00093F84130DBB2292B03D10121F86801F098
:104500002FFCFB682A2283F84120FB68202283F8D5
:104510004220FB6800225A64FB681B68FA68126834
:10452000526822F400425A60FB68BA685A62FB681B
:10453000FA885A85FB685B8D9AB2FB681A85FB681E
:104540003A68DA62FB680E4A5A63FB681B689B692B
:1045500003F48033002B03D1FB681B680822DA6167
:10456000FB68002283F840200621F86801F08AFBEE
:10457000002300E0012318461037BD4680BD00BF70
:10458000CD4A000880B582B000AF78607B6893F8B0
:104590004130DBB2202B0CD17B68282283F84120EC
:1045A0007B68064A5A630421786801F06BFB00239C
:1045B00000E0022318460837BD4680BDCD4A0008FA
:1045C00080B584B000AF78607B6893F84130DBB28F
:1045D000282B20D17B6893F84130DBB203F0030332
:1045E000FB607B6893F84230DBB21A46FB681A43E3
:1045F0007B681A637B68202283F841207B68002255
:1046000083F842207B6800225A630421786801F015
:10461000A7FB002300E0022318461037BD4680BDEB
:1046200080B584B002AF78600B467B807B6893F8DE
:104630004230DBB2102B2AD17B6893F84030012B3B
:1046400001D1022324E07B68012283F8402002216B
:10465000786801F085FB0121786801F081FB7B68B7
:10466000602283F8412079884FF4804300934FF013
:1046700000730122786801F0D7FA7B68002283F882
:1046800040201221786801F0FDFA002300E00123A8
:1046900018460837BD4680BD80B584B000AF78604D
:1046A0007B681B689B69FB607B681B681B68BB6041
:1046B0007B685B6B002B05D07B685B6BBA68F96825
:1046C0007868984700BF1037BD4680BD80B584B07C
:1046D00000AF78607B681B689B69FB607B681B6828
:1046E0001B68BB60FB6803F48073002B0FD0BB68B2
:1046F00003F08003002B0AD07B685B6C43F001025F
:104700007B685A647B681B684FF48072DA61FB68CF
:1047100003F48063002B0FD0BB6803F08003002BF1
:104720000AD07B685B6C43F008027B685A647B6844
:104730001B684FF48062DA61FB6803F40073002B9E
:104740000FD0BB6803F08003002B0AD07B685B6C42
:1047500043F002027B685A647B681B684FF4007266
:10476000DA617B685B6C03F00B03002B05D07B6880
:104770005B6C1946786800F025FF00BF1037BD4616
:1047800080BD80B483B000AF786000BF0C37BD46F9
:104790005DF8047B704780B483B000AF786000BFE1
:1047A0000C37BD465DF8047B704780B483B000AF22
:1047B000786000BF0C37BD465DF8047B704780B45D
:1047C00083B000AF786000BF0C37BD465DF8047B56
:1047D000704780B483B000AF78600B46FB7013461F
:1047E0003B8000BF0C37BD465DF8047B704780B44A
:1047F00083B000AF786000BF0C37BD465DF8047B26
:10480000704780B483B000AF786000BF0C37BD46FE
:104810005DF8047B704780B483B000AF786000BF60
:104820000C37BD465DF8047B704780B483B000AFA1
:10483000786000BF0C37BD465DF8047B704780B4DC
:1048400083B000AF786000BF0C37BD465DF8047BD5
:10485000704780B483B000AF78607B6893F84130D4
:10486000DBB218460C37BD465DF8047B704780B458
:1048700083B000AF78607B6893F84230DBB21846B3
:104880000C37BD465DF8047B704780B483B000AF41
:1048900078607B685B6C18460C37BD465DF8047B1E
:1048A000704780B588B002AFF860B9607A600023C5
:1048B000FB82FB6893F84030012B01D1022301E118
:1048C000FB68012283F84020BB6803F01003002B33
:1048D00012D07B6803F01003002B0DD0FB681B681F
:1048E0001022DA61FB685B6C43F00402FB685A64D7
:1048F000F86800F025FFD2E0BB6803F00403002B4A
:104900001CD07B6803F00403002B17D0FB685B6AA4
:10491000591CFA685162FA681268526AD2B21A7067
:10492000FB681B8D013B9AB2FB681A85FB685B8DA7
:104930009BB2013B9AB2FB685A85B0E0BB6803F0BA
:104940000203002B1BD07B6803F00203002B16D060
:10495000FB681A68FB685B6A581CF96848621B7838
:104960009362FB681B8D013B9AB2FB681A85FB685A
:104970005B8D9BB2013B9AB2FB685A858FE0BB68A6
:1049800003F08003002B5DD07B6803F04003002B15
:1049900058D0FB681B8D002B42D1FB685B8D9BB20E
:1049A000002B3DD0FB681B685B689BB2C3F3090317
:1049B000FB82FB685B8D9BB2FF2B0ED9FB68FF224D
:1049C0001A85FB681B8DDAB2F98A002300934FF039
:1049D0008073F86801F028F933E0FB685B8D9AB2C8
:1049E000FB681A85FB68DB6A13F5803F0CD0FB6817
:1049F0001B8DDAB2FB68D86AF98A0023009303465C
:104A0000F86801F011F91CE0FB681B8DDAB2F98A35
:104A1000002300934FF00073F86801F005F910E0EF
:104A2000FB681B685B6803F00073B3F1007F03D081
:104A3000F86800F092FB32E04021F86800F0C2FD17
:104A40002DE02CE0BB6803F04003002B27D07B68EF
:104A500003F04003002B22D0FB685B8D9BB2002B40
:104A600019D1FB681B685B6803F00073B3F1007F2A
:104A700015D0FB68DB6A13F5803F08D1FB681B6823
:104A8000FA681268526842F480425A6007E0F86897
:104A900000F063FB03E04021F86800F093FDBB6881
:104AA00003F02003002B08D07B6803F02003002BC9
:104AB00003D0B968F86800F0CAFBFB68002283F8ED
:104AC0004020002318461837BD4680BD80B584B00D
:104AD00000AFF860B9607A60FB6893F84030012B52
:104AE00001D10223D8E0FB68012283F84020BB6893
:104AF00003F01003002B45D07B6803F01003002B5C
:104B000040D0FB685B8D9BB2002B2FD1FB68DB6A2A
:104B1000B3F1007F04D0FB68DB6AB3F1007F0AD1F8
:104B2000FB6893F84130DBB2282B04D1B968F868F0
:104B300000F0F6FC25E0FB68DB6A13F5803F10D03F
:104B4000FB6893F84130DBB2292B0AD1FB681B6864
:104B50001022DA61F86800F0F3FDF86800F03AFB23
:104B60000FE0FB681B681022DA6182E0FB681B68BB
:104B70001022DA61FB685B6C43F00402FB685A6444
:104B800077E076E0BB6803F00403002B2ED07B684F
:104B900003F00403002B29D0FB685B8D9BB2002B34
:104BA00016D0FB685B6A591CFA685162FA68126891
:104BB000526AD2B21A70FB681B8D013B9AB2FB6835
:104BC0001A85FB685B8D9BB2013B9AB2FB685A85E4
:104BD000FB685B8D9BB2002B4AD1FB68DB6A13F547
:104BE000803F45D0F86800F0F5FA41E0BB6803F07B
:104BF0000803002B09D07B6803F00803002B04D0C6
:104C0000B968F86800F01FFA33E0BB6803F00203EC
:104C1000002B2ED07B6803F00203002B29D0FB6809
:104C20005B8D9BB2002B16D0FB681A68FB685B6A31
:104C3000581CF96848621B789362FB685B8D9BB2D5
:104C4000013B9AB2FB685A85FB681B8D013B9AB207
:104C5000FB681A850DE0FB68DB6AB3F1807F03D047
:104C6000FB68DB6A002B04D1F86800F0B3FA00E0BF
:104C700000BFBB6803F02003002B08D07B6803F063
:104C80002003002B03D0B968F86800F079FBFB68BB
:104C9000002283F84020002318461037BD4680BD0F
:104CA00080B588B002AFF860B9607A6000237B827B
:104CB00000237B61FB6893F84030012B01D1022374
:104CC00094E0FB68012283F84020BB6803F01003E6
:104CD000002B16D07B6803F01003002B11D0FB686B
:104CE0001B681022DA61FB685B6C43F00402FB680E
:104CF0005A641221F86800F0C5FFF86800F020FD42
:104D00006FE0BB6803F08003002B5CD07B6803F08E
:104D10004003002B57D0FB681B68FA6812681268C2
:104D200022F040021A60FB685B8D9BB2002B45D0DD
:104D3000FB681B685B689BB2C3F309037B82FB685B
:104D40005B8D9BB2FF2B06D9FB68FF221A854FF0C3
:104D500080737B6107E0FB685B8D9AB2FB681A8504
:104D60004FF000737B61FB681B8DDAB2798A0023F8
:104D700000937B69F86800F057FFFB685B8D9AB27F
:104D8000FB681B8DD31A9AB2FB685A85FB6893F8AF
:104D90004130DBB2222B08D1FB681B68FA6812682D
:104DA000126842F400421A601BE0FB681B68FA6854
:104DB0001268126842F480421A6012E04021F868DA
:104DC00000F000FC0DE0BB6803F02003002B08D0CE
:104DD0007B6803F02003002B03D0B968F86800F06B
:104DE00036FAFB68002283F8402000231846183763
:104DF000BD4680BD80B584B000AFF860B9607A6010
:104E0000FB6893F84030012B01D102235AE0FB6884
:104E1000012283F84020BB6803F01003002B2FD041
:104E20007B6803F01003002B2AD0FB6893F8413015
:104E3000DBB2212B09D1FB689B6B1B685B68002BE5
:104E40000CBF01230023DBB208E0FB68DB6B1B68AF
:104E50005B68002B0CBF01230023DBB2002B04D0C6
:104E6000FB681B681022DA6127E0FB681B681022D0
:104E7000DA61FB685B6C43F00402FB685A641CE077
:104E8000BB6803F00803002B09D07B6803F008031C
:104E9000002B04D0FB681B680822DA610DE0BB68B8
:104EA00003F02003002B08D07B6803F02003002BC5
:104EB00003D0B968F86800F063FAFB68002283F851
:104EC0004020002318461037BD4680BD80B586B00F
:104ED00002AFF860084611461A4603467B810B462E
:104EE0003B811346FB80FB88DAB279894FF400538B
:104EF00000934FF08073F86800F096FEFA69B96984
:104F0000F86800F058FD0346002B07D0FB685B6C87
:104F1000042B01D1012334E0032332E0FB88012B71
:104F200005D1FB681B683A89D2B29A621BE0FB6824
:104F30001B683A89120A92B2D2B29A62FA69B969C6
:104F4000F86800F038FD0346002B07D0FB685B6C67
:104F5000042B01D1012314E0032312E0FB681B683A
:104F60003A89D2B29A62FB690093BB690022802120
:104F7000F86800F0E6FC0346002B01D0032300E0B4
:104F8000002318461037BD4680BD80B586B002AFFD
:104F9000F860084611461A4603467B810B463B8162
:104FA0001346FB80FB88DAB279894FF400530093F3
:104FB0000023F86800F038FEFA69B969F86800F073
:104FC000FAFC0346002B07D0FB685B6C042B01D175
:104FD000012334E0032332E0FB88012B05D1FB6879
:104FE0001B683A89D2B29A621BE0FB681B683A8957
:104FF000120A92B2D2B29A62FA69B969F86800F0FC
:10500000DAFC0346002B07D0FB685B6C042B01D154
:10501000012314E0032312E0FB681B683A89D2B233
:105020009A62FB690093BB6900224021F86800F096
:1050300088FC0346002B01D0032300E00023184620
:105040001037BD4680BD80B584B000AF7860396050
:105050000023FB730023BB8100237B8100233B8162
:105060007B6893F84130DBB203F02803282B68D12A
:105070007B681B689B691B0CDBB203F00103FB73AD
:105080007B681B689B691B0C9BB203F0FE03BB8112
:105090007B681B689B689BB2C3F309037B817B68B9
:1050A0001B68DB689BB203F0FE033B817B68DB6817
:1050B000022B37D17B89DB099AB2BB8953409BB263
:1050C00003F00603002B1CD17B89BB817B689B6CA2
:1050D0005A1C7B689A647B689B6C022B39D17B6875
:1050E00000229A647B681B680822DA617B680022D0
:1050F00083F84020BA89FB7B19467868FFF769FB83
:1051000027E03B89BB810421786800F029FE7B6899
:10511000002283F84020BA89FB7B19467868FFF7A4
:1051200058FB16E00421786800F01AFE7B68002224
:1051300083F84020BA89FB7B19467868FFF749FB62
:1051400007E07B681B680822DA617B68002283F82D
:10515000402000BF1037BD4680BD80B582B000AF93
:1051600078607B68002283F842207B6893F84130A6
:10517000DBB2212B15D17B68202283F841207B688C
:1051800011221A637B6800225A630121786800F0BB
:10519000E7FD7B68002283F840207868FFF7F1FA8A
:1051A00014E07B68202283F841207B6812221A6376
:1051B0007B6800225A630221786800F0D1FD7B6889
:1051C000002283F840207868FFF7E5FA00BF08372F
:1051D000BD4680BD80B582B000AF78607B6800229C
:1051E00083F842207B6893F84130DBB2292B12D13F
:1051F0007B68282283F841207B6821221A630121E1
:10520000786800F0ADFD7B68002283F84020786864
:10521000FFF7CBFA17E07B6893F84130DBB22A2B1B
:1052200011D17B68282283F841207B6822221A63EF
:105230000221786800F094FD7B68002283F840200A
:105240007868FFF7BCFA00BF0837BD4680BD80B55F
:1052500082B000AF786039607B681B682022DA6119
:105260007B681A687B681B685968434B0B40536026
:105270007B6800221A637B6800225A637B683F4A7E
:10528000DA623B6803F01003002B09D07B681B68CF
:105290001022DA617B685B6C43F004027B685A641D
:1052A000786800F04DFA0321786800F059FD7B68BA
:1052B0005B6C002B05D17B6893F84130DBB2602B2F
:1052C00006D17B685B6C1946786800F07BF94EE08C
:1052D0007B6893F84130DBB2212B21D17B682022FF
:1052E00083F841207B6893F84230DBB2402B0BD12E
:1052F0007B68002283F842207B68002283F84020EC
:105300007868FFF77EFA32E07B68002283F842205B
:105310007B68002283F840207868FFF732FA26E0A5
:105320007B6893F84130DBB2222B20D17B682022AE
:1053300083F841207B6893F84230DBB2402B0BD1DD
:105340007B68002283F842207B68002283F840209B
:105350007868FFF760FA0AE07B68002283F8422051
:105360007B68002283F840207868FFF714FA00BFBA
:105370000837BD4680BD00BF00E800FE0000FFFF0B
:1053800080B582B000AF786039607B681B682022EE
:10539000DA617B681B680822DA610721786800F00F
:1053A000DFFC7B681B687A681268526842F400422E
:1053B0005A607B681A687B681B685968564B0B40BB
:1053C0005360786800F0BCF97B681B681B6803F4C5
:1053D0008043B3F5804F07D07B681B681B6803F4DC
:1053E0000043B3F5004F12D17B6893F84130DBB234
:1053F000212B05D17B689B6B1B685B689BB204E02B
:105400007B68DB6B1B685B689BB27A6853857B6843
:105410005B8D9BB2002B05D07B685B6C43F0040274
:105420007B685A643B6803F00403002B20D07B6840
:105430005B6A591C7A6851627A681268526AD2B201
:105440001A707B681B8D002B12D07B681B8D013B73
:105450009AB27B681A857B685B8D9BB2013B9AB2DE
:105460007B685A857B685B6C43F004027B685A64F6
:105470007B6800221A637B68002283F842207B68E5
:1054800000225A637B685B6C002B10D07B685B6CDE
:105490001946786800F096F87B6893F84130DBB2E3
:1054A000282B35D13968786800F03AF830E07B680D
:1054B000DB6A13F5803F0ED07B68184ADA627B689E
:1054C000202283F841207B68002283F840207868FE
:1054D000FFF78DF91CE07B6893F84130DBB2222B9B
:1054E0000BD17B68202283F841207B68002283F85F
:1054F00040207868FFF763F90AE07B68202283F890
:1055000041207B68002283F840207868FFF74DF93E
:1055100000BF0837BD4680BD00E800FE0000FFFF69
:1055200080B582B000AF786039607B68244ADA6267
:105530007B6800221A637B68202283F841207B6805
:10554000002283F842207B6800225A633B6803F004
:105550000403002B20D07B685B6A591C7A68516277
:105560007A681268526AD2B21A707B681B8D002B5F
:1055700012D07B681B8D013B9AB27B681A857B68D1
:105580005B8D9BB2013B9AB27B685A857B685B6CF2
:1055900043F004027B685A640721786800F0E0FB5E
:1055A0007B681B681022DA617B68002283F8402048
:1055B0007868FFF71CF900BF0837BD4680BD00BF03
:1055C0000000FFFF80B582B000AF786039607B6873
:1055D000002283F842207B68564ADA627B68002208
:1055E0005A857B685A6C3B681A437B685A647B68AF
:1055F00093F84130DBB2282B0BD07B6893F8413015
:10560000DBB2292B05D07B6893F84130DBB22A2B23
:105610000ED10321786800F0A3FB7B68282283F871
:1056200041207B6800221A637B68434A5A6313E077
:105630000721786800F094FB7B6893F84130DBB277
:10564000602B03D07B68202283F841207B680022F6
:105650001A637B6800225A637B681B681B6803F42B
:105660008043B3F5804F1FD17B681B687A6812684E
:10567000126822F480421A607B689B6B2F4A1A657D
:105680007B68002283F840207B689B6B184630F0D3
:1056900074FE0346002B48D07B689B6B1B6D7A68B9
:1056A000926B1046984740E07B681B681B6803F4C8
:1056B0000043B3F5004F1FD17B681B687A681268FE
:1056C000126822F400421A607B68DB6B1B4A1A6581
:1056D0007B68002283F840207B68DB6B184630F043
:1056E0004CFE0346002B20D07B68DB6B1B6D7A6879
:1056F000D26B1046984718E07B6893F84130DBB2D4
:10570000602B0BD17B68202283F841207B6800222C
:1057100083F840207868FFF792F806E07B68002263
:1057200083F840207868FFF780F800BF0837BD464F
:1057300080BD00BF0000FFFFCD4A0008EB58000805
:1057400080B483B000AF78607B681B689B6903F00E
:105750000203022B03D17B681B6800229A627B68DC
:105760001B689B6903F00103012B07D07B681B6852
:105770007A681268926942F001029A6100BF0C37A0
:10578000BD465DF8047B704780B584B000AF78609B
:105790007B689B6BFB60FB681B68FA681268126889
:1057A00022F480421A60FB685B8D9BB2002B04D10F
:1057B0001221F86800F066FA25E0FB685B6AFA6877
:1057C000128D1A44FB685A62FB685B8D9BB2FF2BFB
:1057D00003D9FB68FF221A8504E0FB685B8D9AB24F
:1057E000FB681A85FB68986BFB685B6A1946FB6867
:1057F0001B6828331A46FB681B8D30F0EEFC122123
:10580000F86800F03FFA00BF1037BD4680BD80B495
:1058100083B000AF786000BF0C37BD465DF8047BF5
:10582000704780B584B000AF78607B689B6BFB608D
:10583000FB681B68FA681268126822F400421A605A
:10584000FB685B8D9BB2002B04D11221F86800F03D
:1058500019FA25E0FB685B6AFA68128D1A44FB6846
:105860005A62FB685B8D9BB2FF2B03D9FB68FF225A
:105870001A8504E0FB685B8D9AB2FB681A85FB68A9
:10588000D86BFB681B6824331946FB685B6A1A46B1
:10589000FB681B8D30F0A1FC1221F86800F0F2F9D2
:1058A00000BF1037BD4680BD80B483B000AF7860C4
:1058B00000BF0C37BD465DF8047B704780B584B0EF
:1058C00000AF78607B689B6BFB60FB681B68FA68C5
:1058D0001268526842F400425A601021F868FFF7DB
:1058E00071FE00BF1037BD4680BD80B584B000AFEB
:1058F00078607B689B6BFB60FB681B68FA681268CA
:10590000526842F400425A60FB689B6B00221A65A1
:10591000FB68DB6B00221A65FB6893F84130DBB251
:10592000602B07D1FB68202283F84120F868FEF73E
:1059300086FF02E0F868FEF778FF00BF1037BD462B
:1059400080BD80B584B000AFF860B9603B6013469D
:10595000FB711CE03B68B3F1FF3F18D03B68002BA4
:1059600007D000F0D5FD0246BB69D21A3B689A42C7
:105970000DD9FB68202283F84120FB68002283F8C0
:105980004220FB68002283F8402003230FE0FB68DD
:105990001B689A69BB681A40BB689A420CBF012316
:1059A0000023DBB21A46FB799A42D3D00023184673
:1059B0001037BD4680BD80B584B000AFF860B960D7
:1059C0007A602CE07A68B968F86800F0CFF803468E
:1059D000002B01D001232AE0BB68B3F1FF3F1ED0AA
:1059E000BB68002B07D000F093FD02467B68D21AFB
:1059F000BB689A4213D9FB685B6C43F02002FB68DA
:105A00005A64FB68202283F84120FB68002283F857
:105A10004220FB68002283F84020032307E0FB6854
:105A20001B689B6903F00203022BCBD100231846AD
:105A30001037BD4680BD80B584B000AFF860B96056
:105A40007A6028E07A68B968F86800F08FF8034651
:105A5000002B01D0012326E0BB68002B07D000F00B
:105A600057FD02467B68D21ABB689A4213D9FB687D
:105A70005B6C43F02002FB685A64FB68202283F8C9
:105A80004120FB68002283F84220FB68002283F853
:105A90004020032307E0FB681B689B6903F0200399
:105AA000202BCFD1002318461037BD4680BD80B5CE
:105AB00084B000AFF860B9607A6048E07A68B9688D
:105AC000F86800F053F80346002B01D0012346E0AC
:105AD000FB681B689B6903F02003202B1CD1FB682B
